{
  "_format": "hh-sol-artifact-1",
  "contractName": "Lottery",
  "sourceName": "contracts/Lottery.sol",
  "abi": [
    {
      "inputs": [
        {
          "internalType": "contract MOKToken",
          "name": "_mokToken",
          "type": "address"
        },
        {
          "internalType": "address",
          "name": "_feeAddress",
          "type": "address"
        },
        {
          "internalType": "uint256",
          "name": "_ticketPrice",
          "type": "uint256"
        },
        {
          "internalType": "uint256",
          "name": "_drawInterval",
          "type": "uint256"
        }
      ],
      "stateMutability": "nonpayable",
      "type": "constructor"
    },
    {
      "anonymous": false,
      "inputs": [
        {
          "indexed": true,
          "internalType": "bytes32",
          "name": "role",
          "type": "bytes32"
        },
        {
          "indexed": true,
          "internalType": "bytes32",
          "name": "previousAdminRole",
          "type": "bytes32"
        },
        {
          "indexed": true,
          "internalType": "bytes32",
          "name": "newAdminRole",
          "type": "bytes32"
        }
      ],
      "name": "RoleAdminChanged",
      "type": "event"
    },
    {
      "anonymous": false,
      "inputs": [
        {
          "indexed": true,
          "internalType": "bytes32",
          "name": "role",
          "type": "bytes32"
        },
        {
          "indexed": true,
          "internalType": "address",
          "name": "account",
          "type": "address"
        },
        {
          "indexed": true,
          "internalType": "address",
          "name": "sender",
          "type": "address"
        }
      ],
      "name": "RoleGranted",
      "type": "event"
    },
    {
      "anonymous": false,
      "inputs": [
        {
          "indexed": true,
          "internalType": "bytes32",
          "name": "role",
          "type": "bytes32"
        },
        {
          "indexed": true,
          "internalType": "address",
          "name": "account",
          "type": "address"
        },
        {
          "indexed": true,
          "internalType": "address",
          "name": "sender",
          "type": "address"
        }
      ],
      "name": "RoleRevoked",
      "type": "event"
    },
    {
      "anonymous": false,
      "inputs": [
        {
          "indexed": false,
          "internalType": "uint256",
          "name": "ticketPrice",
          "type": "uint256"
        }
      ],
      "name": "TicketPriceSet",
      "type": "event"
    },
    {
      "anonymous": false,
      "inputs": [
        {
          "indexed": true,
          "internalType": "address",
          "name": "player",
          "type": "address"
        },
        {
          "indexed": false,
          "internalType": "uint256",
          "name": "numTickets",
          "type": "uint256"
        }
      ],
      "name": "TicketsBought",
      "type": "event"
    },
    {
      "anonymous": false,
      "inputs": [
        {
          "indexed": true,
          "internalType": "address",
          "name": "winner",
          "type": "address"
        }
      ],
      "name": "WinnerDrawn",
      "type": "event"
    },
    {
      "inputs": [],
      "name": "DEFAULT_ADMIN_ROLE",
      "outputs": [
        {
          "internalType": "bytes32",
          "name": "",
          "type": "bytes32"
        }
      ],
      "stateMutability": "view",
      "type": "function"
    },
    {
      "inputs": [],
      "name": "MANAGER_ROLE",
      "outputs": [
        {
          "internalType": "bytes32",
          "name": "",
          "type": "bytes32"
        }
      ],
      "stateMutability": "view",
      "type": "function"
    },
    {
      "inputs": [],
      "name": "OWNER_ROLE",
      "outputs": [
        {
          "internalType": "bytes32",
          "name": "",
          "type": "bytes32"
        }
      ],
      "stateMutability": "view",
      "type": "function"
    },
    {
      "inputs": [
        {
          "internalType": "uint256",
          "name": "numTickets",
          "type": "uint256"
        }
      ],
      "name": "buyTickets",
      "outputs": [],
      "stateMutability": "nonpayable",
      "type": "function"
    },
    {
      "inputs": [],
      "name": "drawInterval",
      "outputs": [
        {
          "internalType": "uint256",
          "name": "",
          "type": "uint256"
        }
      ],
      "stateMutability": "view",
      "type": "function"
    },
    {
      "inputs": [],
      "name": "drawWinner",
      "outputs": [],
      "stateMutability": "nonpayable",
      "type": "function"
    },
    {
      "inputs": [],
      "name": "feeAddress",
      "outputs": [
        {
          "internalType": "address",
          "name": "",
          "type": "address"
        }
      ],
      "stateMutability": "view",
      "type": "function"
    },
    {
      "inputs": [
        {
          "internalType": "bytes32",
          "name": "role",
          "type": "bytes32"
        }
      ],
      "name": "getRoleAdmin",
      "outputs": [
        {
          "internalType": "bytes32",
          "name": "",
          "type": "bytes32"
        }
      ],
      "stateMutability": "view",
      "type": "function"
    },
    {
      "inputs": [
        {
          "internalType": "bytes32",
          "name": "role",
          "type": "bytes32"
        },
        {
          "internalType": "address",
          "name": "account",
          "type": "address"
        }
      ],
      "name": "grantRole",
      "outputs": [],
      "stateMutability": "nonpayable",
      "type": "function"
    },
    {
      "inputs": [
        {
          "internalType": "bytes32",
          "name": "role",
          "type": "bytes32"
        },
        {
          "internalType": "address",
          "name": "account",
          "type": "address"
        }
      ],
      "name": "hasRole",
      "outputs": [
        {
          "internalType": "bool",
          "name": "",
          "type": "bool"
        }
      ],
      "stateMutability": "view",
      "type": "function"
    },
    {
      "inputs": [],
      "name": "mokToken",
      "outputs": [
        {
          "internalType": "contract MOKToken",
          "name": "",
          "type": "address"
        }
      ],
      "stateMutability": "view",
      "type": "function"
    },
    {
      "inputs": [],
      "name": "prizePool",
      "outputs": [
        {
          "internalType": "uint256",
          "name": "",
          "type": "uint256"
        }
      ],
      "stateMutability": "view",
      "type": "function"
    },
    {
      "inputs": [
        {
          "internalType": "bytes32",
          "name": "role",
          "type": "bytes32"
        },
        {
          "internalType": "address",
          "name": "account",
          "type": "address"
        }
      ],
      "name": "renounceRole",
      "outputs": [],
      "stateMutability": "nonpayable",
      "type": "function"
    },
    {
      "inputs": [
        {
          "internalType": "bytes32",
          "name": "role",
          "type": "bytes32"
        },
        {
          "internalType": "address",
          "name": "account",
          "type": "address"
        }
      ],
      "name": "revokeRole",
      "outputs": [],
      "stateMutability": "nonpayable",
      "type": "function"
    },
    {
      "inputs": [
        {
          "internalType": "uint256",
          "name": "_ticketPrice",
          "type": "uint256"
        }
      ],
      "name": "setTicketPrice",
      "outputs": [],
      "stateMutability": "nonpayable",
      "type": "function"
    },
    {
      "inputs": [
        {
          "internalType": "bytes4",
          "name": "interfaceId",
          "type": "bytes4"
        }
      ],
      "name": "supportsInterface",
      "outputs": [
        {
          "internalType": "bool",
          "name": "",
          "type": "bool"
        }
      ],
      "stateMutability": "view",
      "type": "function"
    },
    {
      "inputs": [
        {
          "internalType": "uint256",
          "name": "",
          "type": "uint256"
        }
      ],
      "name": "ticketEntries",
      "outputs": [
        {
          "internalType": "address",
          "name": "",
          "type": "address"
        }
      ],
      "stateMutability": "view",
      "type": "function"
    },
    {
      "inputs": [],
      "name": "ticketPrice",
      "outputs": [
        {
          "internalType": "uint256",
          "name": "",
          "type": "uint256"
        }
      ],
      "stateMutability": "view",
      "type": "function"
    },
    {
      "inputs": [
        {
          "internalType": "address",
          "name": "",
          "type": "address"
        }
      ],
      "name": "tickets",
      "outputs": [
        {
          "internalType": "uint256",
          "name": "",
          "type": "uint256"
        }
      ],
      "stateMutability": "view",
      "type": "function"
    },
    {
      "inputs": [],
      "name": "withdrawUsageFees",
      "outputs": [],
      "stateMutability": "nonpayable",
      "type": "function"
    }
  ],
  "bytecode": "0x60806040523480156200001157600080fd5b506040516200248938038062002489833981810160405281019062000037919062000449565b83600160006101000a81548173ffffffffffffffffffffffffffffffffffffffff021916908373ffffffffffffffffffffffffffffffffffffffff16021790555082600260006101000a81548173ffffffffffffffffffffffffffffffffffffffff021916908373ffffffffffffffffffffffffffffffffffffffff1602179055508160038190555080600481905550620001087fb19546dff01e856fb3f010c267a7b1c60363cf8a4664e21cc89c26224620214e620000fc6200016460201b60201c565b6200016c60201b60201c565b6200015a7f241ecf16d79d0f8dbfb92cbc07fe17840425976cf0667f022fe9877caa831b087fb19546dff01e856fb3f010c267a7b1c60363cf8a4664e21cc89c26224620214e6200018260201b60201c565b50505050620004bb565b600033905090565b6200017e8282620001e560201b60201c565b5050565b60006200019583620002d660201b60201c565b905081600080858152602001908152602001600020600101819055508181847fbd79b86ffe0ab8e8776151514217cd7cacd52c909f66475c3af44e129f0b00ff60405160405180910390a4505050565b620001f78282620002f560201b60201c565b620002d257600160008084815260200190815260200160002060000160008373ffffffffffffffffffffffffffffffffffffffff1673ffffffffffffffffffffffffffffffffffffffff16815260200190815260200160002060006101000a81548160ff021916908315150217905550620002776200016460201b60201c565b73ffffffffffffffffffffffffffffffffffffffff168173ffffffffffffffffffffffffffffffffffffffff16837f2f8788117e7eff1d82e926ec794901d17c78024a50270940304540a733656f0d60405160405180910390a45b5050565b6000806000838152602001908152602001600020600101549050919050565b600080600084815260200190815260200160002060000160008373ffffffffffffffffffffffffffffffffffffffff1673ffffffffffffffffffffffffffffffffffffffff16815260200190815260200160002060009054906101000a900460ff16905092915050565b600080fd5b600073ffffffffffffffffffffffffffffffffffffffff82169050919050565b6000620003918262000364565b9050919050565b6000620003a58262000384565b9050919050565b620003b78162000398565b8114620003c357600080fd5b50565b600081519050620003d781620003ac565b92915050565b620003e88162000384565b8114620003f457600080fd5b50565b6000815190506200040881620003dd565b92915050565b6000819050919050565b62000423816200040e565b81146200042f57600080fd5b50565b600081519050620004438162000418565b92915050565b600080600080608085870312156200046657620004656200035f565b5b60006200047687828801620003c6565b94505060206200048987828801620003f7565b93505060406200049c8782880162000432565b9250506060620004af8782880162000432565b91505092959194509250565b611fbe80620004cb6000396000f3fe608060405234801561001057600080fd5b506004361061012c5760003560e01c806391d14854116100ad578063cf91eadc11610071578063cf91eadc14610331578063d00aeb8b1461033b578063d547741f14610359578063e58378bb14610375578063ec87621c146103935761012c565b806391d148541461028b578063a0d4d6b1146102bb578063a217fddf146102eb578063b2185bb114610309578063bc06c4cc146103135761012c565b80632f366637116100f45780632f366637146101e757806336568abe14610203578063412753581461021f5780636dcbf2a31461023d578063719ce73e1461026d5761012c565b806301ffc9a7146101315780631209b1f614610161578063159816501461017f578063248a9ca31461019b5780632f2ff15d146101cb575b600080fd5b61014b600480360381019061014691906113e8565b6103b1565b6040516101589190611430565b60405180910390f35b61016961042b565b6040516101769190611464565b60405180910390f35b610199600480360381019061019491906114ab565b610431565b005b6101b560048036038101906101b0919061150e565b6104db565b6040516101c2919061154a565b60405180910390f35b6101e560048036038101906101e091906115c3565b6104fa565b005b61020160048036038101906101fc91906114ab565b61051b565b005b61021d600480360381019061021891906115c3565b61075d565b005b6102276107e0565b6040516102349190611612565b60405180910390f35b6102576004803603810190610252919061162d565b610806565b6040516102649190611464565b60405180910390f35b61027561081e565b6040516102829190611464565b60405180910390f35b6102a560048036038101906102a091906115c3565b610824565b6040516102b29190611430565b60405180910390f35b6102d560048036038101906102d091906114ab565b61088e565b6040516102e29190611612565b60405180910390f35b6102f36108cd565b604051610300919061154a565b60405180910390f35b6103116108d4565b005b61031b610c15565b6040516103289190611464565b60405180910390f35b610339610c1b565b005b610343610d53565b60405161035091906116b9565b60405180910390f35b610373600480360381019061036e91906115c3565b610d79565b005b61037d610d9a565b60405161038a919061154a565b60405180910390f35b61039b610dbe565b6040516103a8919061154a565b60405180910390f35b60007f7965db0b000000000000000000000000000000000000000000000000000000007bffffffffffffffffffffffffffffffffffffffffffffffffffffffff1916827bffffffffffffffffffffffffffffffffffffffffffffffffffffffff19161480610424575061042382610de2565b5b9050919050565b60035481565b61045b7fb19546dff01e856fb3f010c267a7b1c60363cf8a4664e21cc89c26224620214e33610824565b61049a576040517f08c379a000000000000000000000000000000000000000000000000000000000815260040161049190611731565b60405180910390fd5b806003819055507f34388f2433e2a2e6d6f978efe10bb2784b04bec67ff0eaa768c332c248da5d1d816040516104d09190611464565b60405180910390a150565b6000806000838152602001908152602001600020600101549050919050565b610503826104db565b61050c81610e4c565b6105168383610e60565b505050565b60008160035461052b9190611780565b9050600160009054906101000a900473ffffffffffffffffffffffffffffffffffffffff1673ffffffffffffffffffffffffffffffffffffffff166323b872dd3330846040518463ffffffff1660e01b815260040161058c939291906117c2565b6020604051808303816000875af11580156105ab573d6000803e3d6000fd5b505050506040513d601f19601f820116820180604052508101906105cf9190611825565b50600061271061251c836105e39190611780565b6105ed9190611881565b9050806006600082825461060191906118b2565b925050819055506000818361061691906118e6565b9050806007600082825461062a91906118b2565b9250508190555083600860003373ffffffffffffffffffffffffffffffffffffffff1673ffffffffffffffffffffffffffffffffffffffff168152602001908152602001600020600082825461068091906118b2565b9250508190555060005b84811015610708576009339080600181540180825580915050600190039060005260206000200160009091909190916101000a81548173ffffffffffffffffffffffffffffffffffffffff021916908373ffffffffffffffffffffffffffffffffffffffff16021790555080806107009061191a565b91505061068a565b503373ffffffffffffffffffffffffffffffffffffffff167fb24ee662b0a257d0321d324e737d2507fbe45df8af8d0da951f630f3754eb6a08560405161074f9190611464565b60405180910390a250505050565b610765610f40565b73ffffffffffffffffffffffffffffffffffffffff168173ffffffffffffffffffffffffffffffffffffffff16146107d2576040517f08c379a00000000000000000000000000000000000000000000000000000000081526004016107c9906119d4565b60405180910390fd5b6107dc8282610f48565b5050565b600260009054906101000a900473ffffffffffffffffffffffffffffffffffffffff1681565b60086020528060005260406000206000915090505481565b60065481565b600080600084815260200190815260200160002060000160008373ffffffffffffffffffffffffffffffffffffffff1673ffffffffffffffffffffffffffffffffffffffff16815260200190815260200160002060009054906101000a900460ff16905092915050565b6009818154811061089e57600080fd5b906000526020600020016000915054906101000a900473ffffffffffffffffffffffffffffffffffffffff1681565b6000801b81565b6108fe7f241ecf16d79d0f8dbfb92cbc07fe17840425976cf0667f022fe9877caa831b0833610824565b8061092f575061092e7fb19546dff01e856fb3f010c267a7b1c60363cf8a4664e21cc89c26224620214e33610824565b5b61096e576040517f08c379a000000000000000000000000000000000000000000000000000000000815260040161096590611731565b60405180910390fd5b60045460055461097e91906118b2565b4210156109c0576040517f08c379a00000000000000000000000000000000000000000000000000000000081526004016109b790611a40565b60405180910390fd5b600060098054905011610a08576040517f08c379a00000000000000000000000000000000000000000000000000000000081526004016109ff90611aac565b60405180910390fd5b6000600980549050610a18611029565b610a229190611acc565b9050600060098281548110610a3a57610a39611afd565b5b9060005260206000200160009054906101000a900473ffffffffffffffffffffffffffffffffffffffff169050600160009054906101000a900473ffffffffffffffffffffffffffffffffffffffff1673ffffffffffffffffffffffffffffffffffffffff1663a9059cbb826006546040518363ffffffff1660e01b8152600401610ac6929190611b2c565b6020604051808303816000875af1158015610ae5573d6000803e3d6000fd5b505050506040513d601f19601f82011682018060405250810190610b099190611825565b5060006006819055504260058190555060005b600980549050811015610bbf5760006008600060098481548110610b4357610b42611afd565b5b9060005260206000200160009054906101000a900473ffffffffffffffffffffffffffffffffffffffff1673ffffffffffffffffffffffffffffffffffffffff1673ffffffffffffffffffffffffffffffffffffffff168152602001908152602001600020819055508080610bb79061191a565b915050610b1c565b5060096000610bce919061134d565b8073ffffffffffffffffffffffffffffffffffffffff167fb1899e5911a12372a7fa329d3051f8358e8f5156f66bcf69707ea096419681b760405160405180910390a25050565b60045481565b610c457fb19546dff01e856fb3f010c267a7b1c60363cf8a4664e21cc89c26224620214e33610824565b610c84576040517f08c379a0000000000000000000000000000000000000000000000000000000008152600401610c7b90611731565b60405180910390fd5b600160009054906101000a900473ffffffffffffffffffffffffffffffffffffffff1673ffffffffffffffffffffffffffffffffffffffff1663a9059cbb600260009054906101000a900473ffffffffffffffffffffffffffffffffffffffff166007546040518363ffffffff1660e01b8152600401610d05929190611b2c565b6020604051808303816000875af1158015610d24573d6000803e3d6000fd5b505050506040513d601f19601f82011682018060405250810190610d489190611825565b506000600781905550565b600160009054906101000a900473ffffffffffffffffffffffffffffffffffffffff1681565b610d82826104db565b610d8b81610e4c565b610d958383610f48565b505050565b7fb19546dff01e856fb3f010c267a7b1c60363cf8a4664e21cc89c26224620214e81565b7f241ecf16d79d0f8dbfb92cbc07fe17840425976cf0667f022fe9877caa831b0881565b60007f01ffc9a7000000000000000000000000000000000000000000000000000000007bffffffffffffffffffffffffffffffffffffffffffffffffffffffff1916827bffffffffffffffffffffffffffffffffffffffffffffffffffffffff1916149050919050565b610e5d81610e58610f40565b61105f565b50565b610e6a8282610824565b610f3c57600160008084815260200190815260200160002060000160008373ffffffffffffffffffffffffffffffffffffffff1673ffffffffffffffffffffffffffffffffffffffff16815260200190815260200160002060006101000a81548160ff021916908315150217905550610ee1610f40565b73ffffffffffffffffffffffffffffffffffffffff168173ffffffffffffffffffffffffffffffffffffffff16837f2f8788117e7eff1d82e926ec794901d17c78024a50270940304540a733656f0d60405160405180910390a45b5050565b600033905090565b610f528282610824565b1561102557600080600084815260200190815260200160002060000160008373ffffffffffffffffffffffffffffffffffffffff1673ffffffffffffffffffffffffffffffffffffffff16815260200190815260200160002060006101000a81548160ff021916908315150217905550610fca610f40565b73ffffffffffffffffffffffffffffffffffffffff168173ffffffffffffffffffffffffffffffffffffffff16837ff6391f5c32d9c69d2a47ea670b442974b53935d1edc7fd64eb21e047a839171b60405160405180910390a45b5050565b60004233600960405160200161104193929190611cdc565b6040516020818303038152906040528051906020012060001c905090565b6110698282610824565b6110e057611076816110e4565b6110848360001c6020611111565b604051602001611095929190611e1e565b6040516020818303038152906040526040517f08c379a00000000000000000000000000000000000000000000000000000000081526004016110d79190611ea2565b60405180910390fd5b5050565b606061110a8273ffffffffffffffffffffffffffffffffffffffff16601460ff16611111565b9050919050565b6060600060028360026111249190611780565b61112e91906118b2565b67ffffffffffffffff81111561114757611146611ec4565b5b6040519080825280601f01601f1916602001820160405280156111795781602001600182028036833780820191505090505b5090507f3000000000000000000000000000000000000000000000000000000000000000816000815181106111b1576111b0611afd565b5b60200101907effffffffffffffffffffffffffffffffffffffffffffffffffffffffffffff1916908160001a9053507f78000000000000000000000000000000000000000000000000000000000000008160018151811061121557611214611afd565b5b60200101907effffffffffffffffffffffffffffffffffffffffffffffffffffffffffffff1916908160001a905350600060018460026112559190611780565b61125f91906118b2565b90505b60018111156112ff577f3031323334353637383961626364656600000000000000000000000000000000600f8616601081106112a1576112a0611afd565b5b1a60f81b8282815181106112b8576112b7611afd565b5b60200101907effffffffffffffffffffffffffffffffffffffffffffffffffffffffffffff1916908160001a905350600485901c9450806112f890611ef3565b9050611262565b5060008414611343576040517f08c379a000000000000000000000000000000000000000000000000000000000815260040161133a90611f68565b60405180910390fd5b8091505092915050565b508054600082559060005260206000209081019061136b919061136e565b50565b5b8082111561138757600081600090555060010161136f565b5090565b600080fd5b60007fffffffff0000000000000000000000000000000000000000000000000000000082169050919050565b6113c581611390565b81146113d057600080fd5b50565b6000813590506113e2816113bc565b92915050565b6000602082840312156113fe576113fd61138b565b5b600061140c848285016113d3565b91505092915050565b60008115159050919050565b61142a81611415565b82525050565b60006020820190506114456000830184611421565b92915050565b6000819050919050565b61145e8161144b565b82525050565b60006020820190506114796000830184611455565b92915050565b6114888161144b565b811461149357600080fd5b50565b6000813590506114a58161147f565b92915050565b6000602082840312156114c1576114c061138b565b5b60006114cf84828501611496565b91505092915050565b6000819050919050565b6114eb816114d8565b81146114f657600080fd5b50565b600081359050611508816114e2565b92915050565b6000602082840312156115245761152361138b565b5b6000611532848285016114f9565b91505092915050565b611544816114d8565b82525050565b600060208201905061155f600083018461153b565b92915050565b600073ffffffffffffffffffffffffffffffffffffffff82169050919050565b600061159082611565565b9050919050565b6115a081611585565b81146115ab57600080fd5b50565b6000813590506115bd81611597565b92915050565b600080604083850312156115da576115d961138b565b5b60006115e8858286016114f9565b92505060206115f9858286016115ae565b9150509250929050565b61160c81611585565b82525050565b60006020820190506116276000830184611603565b92915050565b6000602082840312156116435761164261138b565b5b6000611651848285016115ae565b91505092915050565b6000819050919050565b600061167f61167a61167584611565565b61165a565b611565565b9050919050565b600061169182611664565b9050919050565b60006116a382611686565b9050919050565b6116b381611698565b82525050565b60006020820190506116ce60008301846116aa565b92915050565b600082825260208201905092915050565b7f4e6f7420617574686f72697a6564000000000000000000000000000000000000600082015250565b600061171b600e836116d4565b9150611726826116e5565b602082019050919050565b6000602082019050818103600083015261174a8161170e565b9050919050565b7f4e487b7100000000000000000000000000000000000000000000000000000000600052601160045260246000fd5b600061178b8261144b565b91506117968361144b565b92508282026117a48161144b565b915082820484148315176117bb576117ba611751565b5b5092915050565b60006060820190506117d76000830186611603565b6117e46020830185611603565b6117f16040830184611455565b949350505050565b61180281611415565b811461180d57600080fd5b50565b60008151905061181f816117f9565b92915050565b60006020828403121561183b5761183a61138b565b5b600061184984828501611810565b91505092915050565b7f4e487b7100000000000000000000000000000000000000000000000000000000600052601260045260246000fd5b600061188c8261144b565b91506118978361144b565b9250826118a7576118a6611852565b5b828204905092915050565b60006118bd8261144b565b91506118c88361144b565b92508282019050808211156118e0576118df611751565b5b92915050565b60006118f18261144b565b91506118fc8361144b565b925082820390508181111561191457611913611751565b5b92915050565b60006119258261144b565b91507fffffffffffffffffffffffffffffffffffffffffffffffffffffffffffffffff820361195757611956611751565b5b600182019050919050565b7f416363657373436f6e74726f6c3a2063616e206f6e6c792072656e6f756e636560008201527f20726f6c657320666f722073656c660000000000000000000000000000000000602082015250565b60006119be602f836116d4565b91506119c982611962565b604082019050919050565b600060208201905081810360008301526119ed816119b1565b9050919050565b7f43616e6e6f742064726177207965740000000000000000000000000000000000600082015250565b6000611a2a600f836116d4565b9150611a35826119f4565b602082019050919050565b60006020820190508181036000830152611a5981611a1d565b9050919050565b7f4e6f20706c617965727320696e20746865206c6f747465727900000000000000600082015250565b6000611a966019836116d4565b9150611aa182611a60565b602082019050919050565b60006020820190508181036000830152611ac581611a89565b9050919050565b6000611ad78261144b565b9150611ae28361144b565b925082611af257611af1611852565b5b828206905092915050565b7f4e487b7100000000000000000000000000000000000000000000000000000000600052603260045260246000fd5b6000604082019050611b416000830185611603565b611b4e6020830184611455565b9392505050565b6000819050919050565b611b70611b6b8261144b565b611b55565b82525050565b60008160601b9050919050565b6000611b8e82611b76565b9050919050565b6000611ba082611b83565b9050919050565b611bb8611bb382611585565b611b95565b82525050565b600081549050919050565b600081905092915050565b60008190508160005260206000209050919050565b611bf281611585565b82525050565b6000611c048383611be9565b60208301905092915050565b60008160001c9050919050565b600073ffffffffffffffffffffffffffffffffffffffff82169050919050565b6000611c50611c4b83611c10565b611c1d565b9050919050565b6000611c638254611c3d565b9050919050565b6000600182019050919050565b6000611c8282611bbe565b611c8c8185611bc9565b9350611c9783611bd4565b8060005b83811015611ccf57611cac82611c57565b611cb68882611bf8565b9750611cc183611c6a565b925050600181019050611c9b565b5085935050505092915050565b6000611ce88286611b5f565b602082019150611cf88285611ba7565b601482019150611d088284611c77565b9150819050949350505050565b600081905092915050565b7f416363657373436f6e74726f6c3a206163636f756e7420000000000000000000600082015250565b6000611d56601783611d15565b9150611d6182611d20565b601782019050919050565b600081519050919050565b60005b83811015611d95578082015181840152602081019050611d7a565b60008484015250505050565b6000611dac82611d6c565b611db68185611d15565b9350611dc6818560208601611d77565b80840191505092915050565b7f206973206d697373696e6720726f6c6520000000000000000000000000000000600082015250565b6000611e08601183611d15565b9150611e1382611dd2565b601182019050919050565b6000611e2982611d49565b9150611e358285611da1565b9150611e4082611dfb565b9150611e4c8284611da1565b91508190509392505050565b6000601f19601f8301169050919050565b6000611e7482611d6c565b611e7e81856116d4565b9350611e8e818560208601611d77565b611e9781611e58565b840191505092915050565b60006020820190508181036000830152611ebc8184611e69565b905092915050565b7f4e487b7100000000000000000000000000000000000000000000000000000000600052604160045260246000fd5b6000611efe8261144b565b915060008203611f1157611f10611751565b5b600182039050919050565b7f537472696e67733a20686578206c656e67746820696e73756666696369656e74600082015250565b6000611f526020836116d4565b9150611f5d82611f1c565b602082019050919050565b60006020820190508181036000830152611f8181611f45565b905091905056fea26469706673582212207fb58ec8ee3118109b020024d9558f0a22b98ff4ef5a6c76e4535800667ddc8d64736f6c63430008120033",
  "linkReferences": {},
  "deployedLinkReferences": {}
}