{
  "contractName": "Lottery",
  "abi": [
    {
      "inputs": [
        {
          "internalType": "contract MOKToken",
          "name": "_mokToken",
          "type": "address"
        },
        {
          "internalType": "address",
          "name": "_feeAddress",
          "type": "address"
        },
        {
          "internalType": "uint256",
          "name": "_ticketPrice",
          "type": "uint256"
        },
        {
          "internalType": "uint256",
          "name": "_drawInterval",
          "type": "uint256"
        }
      ],
      "stateMutability": "nonpayable",
      "type": "constructor"
    },
    {
      "anonymous": false,
      "inputs": [
        {
          "indexed": true,
          "internalType": "address",
          "name": "manager1",
          "type": "address"
        },
        {
          "indexed": true,
          "internalType": "address",
          "name": "manager2",
          "type": "address"
        }
      ],
      "name": "ManagersSet",
      "type": "event"
    },
    {
      "anonymous": false,
      "inputs": [
        {
          "indexed": true,
          "internalType": "address",
          "name": "previousOwner",
          "type": "address"
        },
        {
          "indexed": true,
          "internalType": "address",
          "name": "newOwner",
          "type": "address"
        }
      ],
      "name": "OwnershipTransferred",
      "type": "event"
    },
    {
      "anonymous": false,
      "inputs": [
        {
          "indexed": false,
          "internalType": "uint256",
          "name": "ticketPrice",
          "type": "uint256"
        }
      ],
      "name": "TicketPriceSet",
      "type": "event"
    },
    {
      "anonymous": false,
      "inputs": [
        {
          "indexed": true,
          "internalType": "address",
          "name": "player",
          "type": "address"
        },
        {
          "indexed": false,
          "internalType": "uint256",
          "name": "numTickets",
          "type": "uint256"
        }
      ],
      "name": "TicketsBought",
      "type": "event"
    },
    {
      "anonymous": false,
      "inputs": [
        {
          "indexed": true,
          "internalType": "address",
          "name": "winner",
          "type": "address"
        }
      ],
      "name": "WinnerDrawn",
      "type": "event"
    },
    {
      "inputs": [],
      "name": "manager1",
      "outputs": [
        {
          "internalType": "address",
          "name": "",
          "type": "address"
        }
      ],
      "stateMutability": "view",
      "type": "function"
    },
    {
      "inputs": [],
      "name": "manager2",
      "outputs": [
        {
          "internalType": "address",
          "name": "",
          "type": "address"
        }
      ],
      "stateMutability": "view",
      "type": "function"
    },
    {
      "inputs": [],
      "name": "owner",
      "outputs": [
        {
          "internalType": "address",
          "name": "",
          "type": "address"
        }
      ],
      "stateMutability": "view",
      "type": "function"
    },
    {
      "inputs": [],
      "name": "renounceOwnership",
      "outputs": [],
      "stateMutability": "nonpayable",
      "type": "function"
    },
    {
      "inputs": [
        {
          "internalType": "address",
          "name": "newOwner",
          "type": "address"
        }
      ],
      "name": "transferOwnership",
      "outputs": [],
      "stateMutability": "nonpayable",
      "type": "function"
    },
    {
      "inputs": [
        {
          "internalType": "address",
          "name": "_manager1",
          "type": "address"
        },
        {
          "internalType": "address",
          "name": "_manager2",
          "type": "address"
        }
      ],
      "name": "setManagers",
      "outputs": [],
      "stateMutability": "nonpayable",
      "type": "function"
    },
    {
      "inputs": [],
      "name": "getTicketPrice",
      "outputs": [
        {
          "internalType": "uint256",
          "name": "",
          "type": "uint256"
        }
      ],
      "stateMutability": "view",
      "type": "function"
    },
    {
      "inputs": [
        {
          "internalType": "address",
          "name": "player",
          "type": "address"
        }
      ],
      "name": "getNumberOfTickets",
      "outputs": [
        {
          "internalType": "uint256",
          "name": "",
          "type": "uint256"
        }
      ],
      "stateMutability": "view",
      "type": "function"
    },
    {
      "inputs": [],
      "name": "getPrizePool",
      "outputs": [
        {
          "internalType": "uint256",
          "name": "",
          "type": "uint256"
        }
      ],
      "stateMutability": "view",
      "type": "function"
    },
    {
      "inputs": [
        {
          "internalType": "uint256",
          "name": "numTickets",
          "type": "uint256"
        }
      ],
      "name": "buyTickets",
      "outputs": [],
      "stateMutability": "nonpayable",
      "type": "function"
    },
    {
      "inputs": [],
      "name": "drawWinner",
      "outputs": [],
      "stateMutability": "nonpayable",
      "type": "function"
    },
    {
      "inputs": [],
      "name": "withdrawUsageFees",
      "outputs": [],
      "stateMutability": "nonpayable",
      "type": "function"
    },
    {
      "inputs": [
        {
          "internalType": "uint256",
          "name": "_ticketPrice",
          "type": "uint256"
        }
      ],
      "name": "setTicketPrice",
      "outputs": [],
      "stateMutability": "nonpayable",
      "type": "function"
    },
    {
      "inputs": [],
      "name": "getPlayers",
      "outputs": [
        {
          "internalType": "address[]",
          "name": "",
          "type": "address[]"
        }
      ],
      "stateMutability": "view",
      "type": "function"
    }
  ],
  "bytecode": "0x60806040523480156200001157600080fd5b5060405162001a1738038062001a178339818101604052810190620000379190620002ae565b620000576200004b620000f860201b60201c565b6200010060201b60201c565b83600160006101000a81548173ffffffffffffffffffffffffffffffffffffffff021916908373ffffffffffffffffffffffffffffffffffffffff16021790555082600260006101000a81548173ffffffffffffffffffffffffffffffffffffffff021916908373ffffffffffffffffffffffffffffffffffffffff1602179055508160038190555080600481905550426005819055505050505062000320565b600033905090565b60008060009054906101000a900473ffffffffffffffffffffffffffffffffffffffff169050816000806101000a81548173ffffffffffffffffffffffffffffffffffffffff021916908373ffffffffffffffffffffffffffffffffffffffff1602179055508173ffffffffffffffffffffffffffffffffffffffff168173ffffffffffffffffffffffffffffffffffffffff167f8be0079c531659141344cd1fd0a4f28419497f9722a3daafe3b4186f6b6457e060405160405180910390a35050565b600080fd5b600073ffffffffffffffffffffffffffffffffffffffff82169050919050565b6000620001f682620001c9565b9050919050565b60006200020a82620001e9565b9050919050565b6200021c81620001fd565b81146200022857600080fd5b50565b6000815190506200023c8162000211565b92915050565b6200024d81620001e9565b81146200025957600080fd5b50565b6000815190506200026d8162000242565b92915050565b6000819050919050565b620002888162000273565b81146200029457600080fd5b50565b600081519050620002a8816200027d565b92915050565b60008060008060808587031215620002cb57620002ca620001c4565b5b6000620002db878288016200022b565b9450506020620002ee878288016200025c565b9350506040620003018782880162000297565b9250506060620003148782880162000297565b91505092959194509250565b6116e780620003306000396000f3fe608060405234801561001057600080fd5b50600436106100ea5760003560e01c8063884bf67c1161008c578063a92e29bc11610066578063a92e29bc14610215578063b2185bb114610231578063cf91eadc1461023b578063f2fde38b14610245576100ea565b8063884bf67c146101bb5780638b5b9ccc146101d95780638da5cb5b146101f7576100ea565b8063715018a6116100c8578063715018a61461014557806377acbb221461014f5780637c73255c1461016d57806387bb7ae01461019d576100ea565b806315981650146100ef5780632f3666371461010b5780636f7f461d14610127575b600080fd5b61010960048036038101906101049190610e48565b610261565b005b61012560048036038101906101209190610e48565b6102aa565b005b61012f610532565b60405161013c9190610eb6565b60405180910390f35b61014d610558565b005b61015761056c565b6040516101649190610eb6565b60405180910390f35b61018760048036038101906101829190610efd565b610592565b6040516101949190610f39565b60405180910390f35b6101a56105db565b6040516101b29190610f39565b60405180910390f35b6101c36105e5565b6040516101d09190610f39565b60405180910390f35b6101e16105ef565b6040516101ee9190611012565b60405180910390f35b6101ff61067d565b60405161020c9190610eb6565b60405180910390f35b61022f600480360381019061022a9190611034565b6106a6565b005b61023961078e565b005b610243610ab3565b005b61025f600480360381019061025a9190610efd565b610b8a565b005b610269610c0d565b806003819055507f34388f2433e2a2e6d6f978efe10bb2784b04bec67ff0eaa768c332c248da5d1d8160405161029f9190610f39565b60405180910390a150565b60006102c182600354610c8b90919063ffffffff16565b9050600160009054906101000a900473ffffffffffffffffffffffffffffffffffffffff1673ffffffffffffffffffffffffffffffffffffffff166323b872dd3330846040518463ffffffff1660e01b815260040161032293929190611074565b6020604051808303816000875af1158015610341573d6000803e3d6000fd5b505050506040513d601f19601f8201168201806040525081019061036591906110e3565b506103a16103906064610382605f85610c8b90919063ffffffff16565b610ca190919063ffffffff16565b600654610cb790919063ffffffff16565b6006819055506103e26103d160646103c3600585610c8b90919063ffffffff16565b610ca190919063ffffffff16565b600754610cb790919063ffffffff16565b60078190555061043a82600860003373ffffffffffffffffffffffffffffffffffffffff1673ffffffffffffffffffffffffffffffffffffffff16815260200190815260200160002054610cb790919063ffffffff16565b600860003373ffffffffffffffffffffffffffffffffffffffff1673ffffffffffffffffffffffffffffffffffffffff168152602001908152602001600020819055506009339080600181540180825580915050600190039060005260206000200160009091909190916101000a81548173ffffffffffffffffffffffffffffffffffffffff021916908373ffffffffffffffffffffffffffffffffffffffff1602179055503373ffffffffffffffffffffffffffffffffffffffff167fb24ee662b0a257d0321d324e737d2507fbe45df8af8d0da951f630f3754eb6a0836040516105269190610f39565b60405180910390a25050565b600a60009054906101000a900473ffffffffffffffffffffffffffffffffffffffff1681565b610560610c0d565b61056a6000610ccd565b565b600b60009054906101000a900473ffffffffffffffffffffffffffffffffffffffff1681565b6000600860008373ffffffffffffffffffffffffffffffffffffffff1673ffffffffffffffffffffffffffffffffffffffff168152602001908152602001600020549050919050565b6000600354905090565b6000600654905090565b6060600980548060200260200160405190810160405280929190818152602001828054801561067357602002820191906000526020600020905b8160009054906101000a900473ffffffffffffffffffffffffffffffffffffffff1673ffffffffffffffffffffffffffffffffffffffff1681526020019060010190808311610629575b5050505050905090565b60008060009054906101000a900473ffffffffffffffffffffffffffffffffffffffff16905090565b6106ae610c0d565b81600a60006101000a81548173ffffffffffffffffffffffffffffffffffffffff021916908373ffffffffffffffffffffffffffffffffffffffff16021790555080600b60006101000a81548173ffffffffffffffffffffffffffffffffffffffff021916908373ffffffffffffffffffffffffffffffffffffffff1602179055508073ffffffffffffffffffffffffffffffffffffffff168273ffffffffffffffffffffffffffffffffffffffff167f6a1f99fde8a7d170aa5ee6f8c1d80a528f03fde6b4df3fdddbb18513dfc64eff60405160405180910390a35050565b61079661067d565b73ffffffffffffffffffffffffffffffffffffffff163373ffffffffffffffffffffffffffffffffffffffff16148061081c5750600a60009054906101000a900473ffffffffffffffffffffffffffffffffffffffff1673ffffffffffffffffffffffffffffffffffffffff163373ffffffffffffffffffffffffffffffffffffffff16145b806108745750600b60009054906101000a900473ffffffffffffffffffffffffffffffffffffffff1673ffffffffffffffffffffffffffffffffffffffff163373ffffffffffffffffffffffffffffffffffffffff16145b6108b3576040517f08c379a00000000000000000000000000000000000000000000000000000000081526004016108aa9061116d565b60405180910390fd5b6004546005546108c391906111bc565b421015610905576040517f08c379a00000000000000000000000000000000000000000000000000000000081526004016108fc9061123c565b60405180910390fd5b60006009805490501161094d576040517f08c379a0000000000000000000000000000000000000000000000000000000008152600401610944906112a8565b60405180910390fd5b600060098054905061095d610d91565b61096791906112f7565b905060006009828154811061097f5761097e611328565b5b9060005260206000200160009054906101000a900473ffffffffffffffffffffffffffffffffffffffff169050600160009054906101000a900473ffffffffffffffffffffffffffffffffffffffff1673ffffffffffffffffffffffffffffffffffffffff1663a9059cbb826006546040518363ffffffff1660e01b8152600401610a0b929190611357565b6020604051808303816000875af1158015610a2a573d6000803e3d6000fd5b505050506040513d601f19601f82011682018060405250810190610a4e91906110e3565b5060006006819055504260058190555060096000610a6c9190610dcf565b8073ffffffffffffffffffffffffffffffffffffffff167fb1899e5911a12372a7fa329d3051f8358e8f5156f66bcf69707ea096419681b760405160405180910390a25050565b610abb610c0d565b600160009054906101000a900473ffffffffffffffffffffffffffffffffffffffff1673ffffffffffffffffffffffffffffffffffffffff1663a9059cbb600260009054906101000a900473ffffffffffffffffffffffffffffffffffffffff166007546040518363ffffffff1660e01b8152600401610b3c929190611357565b6020604051808303816000875af1158015610b5b573d6000803e3d6000fd5b505050506040513d601f19601f82011682018060405250810190610b7f91906110e3565b506000600781905550565b610b92610c0d565b600073ffffffffffffffffffffffffffffffffffffffff168173ffffffffffffffffffffffffffffffffffffffff1603610c01576040517f08c379a0000000000000000000000000000000000000000000000000000000008152600401610bf8906113f2565b60405180910390fd5b610c0a81610ccd565b50565b610c15610dc7565b73ffffffffffffffffffffffffffffffffffffffff16610c3361067d565b73ffffffffffffffffffffffffffffffffffffffff1614610c89576040517f08c379a0000000000000000000000000000000000000000000000000000000008152600401610c809061145e565b60405180910390fd5b565b60008183610c99919061147e565b905092915050565b60008183610caf91906114c0565b905092915050565b60008183610cc591906111bc565b905092915050565b60008060009054906101000a900473ffffffffffffffffffffffffffffffffffffffff169050816000806101000a81548173ffffffffffffffffffffffffffffffffffffffff021916908373ffffffffffffffffffffffffffffffffffffffff1602179055508173ffffffffffffffffffffffffffffffffffffffff168173ffffffffffffffffffffffffffffffffffffffff167f8be0079c531659141344cd1fd0a4f28419497f9722a3daafe3b4186f6b6457e060405160405180910390a35050565b600042336009604051602001610da993929190611678565b6040516020818303038152906040528051906020012060001c905090565b600033905090565b5080546000825590600052602060002090810190610ded9190610df0565b50565b5b80821115610e09576000816000905550600101610df1565b5090565b600080fd5b6000819050919050565b610e2581610e12565b8114610e3057600080fd5b50565b600081359050610e4281610e1c565b92915050565b600060208284031215610e5e57610e5d610e0d565b5b6000610e6c84828501610e33565b91505092915050565b600073ffffffffffffffffffffffffffffffffffffffff82169050919050565b6000610ea082610e75565b9050919050565b610eb081610e95565b82525050565b6000602082019050610ecb6000830184610ea7565b92915050565b610eda81610e95565b8114610ee557600080fd5b50565b600081359050610ef781610ed1565b92915050565b600060208284031215610f1357610f12610e0d565b5b6000610f2184828501610ee8565b91505092915050565b610f3381610e12565b82525050565b6000602082019050610f4e6000830184610f2a565b92915050565b600081519050919050565b600082825260208201905092915050565b6000819050602082019050919050565b610f8981610e95565b82525050565b6000610f9b8383610f80565b60208301905092915050565b6000602082019050919050565b6000610fbf82610f54565b610fc98185610f5f565b9350610fd483610f70565b8060005b83811015611005578151610fec8882610f8f565b9750610ff783610fa7565b925050600181019050610fd8565b5085935050505092915050565b6000602082019050818103600083015261102c8184610fb4565b905092915050565b6000806040838503121561104b5761104a610e0d565b5b600061105985828601610ee8565b925050602061106a85828601610ee8565b9150509250929050565b60006060820190506110896000830186610ea7565b6110966020830185610ea7565b6110a36040830184610f2a565b949350505050565b60008115159050919050565b6110c0816110ab565b81146110cb57600080fd5b50565b6000815190506110dd816110b7565b92915050565b6000602082840312156110f9576110f8610e0d565b5b6000611107848285016110ce565b91505092915050565b600082825260208201905092915050565b7f4e6f7420617574686f72697a6564000000000000000000000000000000000000600082015250565b6000611157600e83611110565b915061116282611121565b602082019050919050565b600060208201905081810360008301526111868161114a565b9050919050565b7f4e487b7100000000000000000000000000000000000000000000000000000000600052601160045260246000fd5b60006111c782610e12565b91506111d283610e12565b92508282019050808211156111ea576111e961118d565b5b92915050565b7f43616e6e6f742064726177207965740000000000000000000000000000000000600082015250565b6000611226600f83611110565b9150611231826111f0565b602082019050919050565b6000602082019050818103600083015261125581611219565b9050919050565b7f4e6f20706c617965727320696e20746865206c6f747465727900000000000000600082015250565b6000611292601983611110565b915061129d8261125c565b602082019050919050565b600060208201905081810360008301526112c181611285565b9050919050565b7f4e487b7100000000000000000000000000000000000000000000000000000000600052601260045260246000fd5b600061130282610e12565b915061130d83610e12565b92508261131d5761131c6112c8565b5b828206905092915050565b7f4e487b7100000000000000000000000000000000000000000000000000000000600052603260045260246000fd5b600060408201905061136c6000830185610ea7565b6113796020830184610f2a565b9392505050565b7f4f776e61626c653a206e6577206f776e657220697320746865207a65726f206160008201527f6464726573730000000000000000000000000000000000000000000000000000602082015250565b60006113dc602683611110565b91506113e782611380565b604082019050919050565b6000602082019050818103600083015261140b816113cf565b9050919050565b7f4f776e61626c653a2063616c6c6572206973206e6f7420746865206f776e6572600082015250565b6000611448602083611110565b915061145382611412565b602082019050919050565b600060208201905081810360008301526114778161143b565b9050919050565b600061148982610e12565b915061149483610e12565b92508282026114a281610e12565b915082820484148315176114b9576114b861118d565b5b5092915050565b60006114cb82610e12565b91506114d683610e12565b9250826114e6576114e56112c8565b5b828204905092915050565b6000819050919050565b61150c61150782610e12565b6114f1565b82525050565b60008160601b9050919050565b600061152a82611512565b9050919050565b600061153c8261151f565b9050919050565b61155461154f82610e95565b611531565b82525050565b600081549050919050565b600081905092915050565b60008190508160005260206000209050919050565b61158e81610e95565b82525050565b60006115a08383611585565b60208301905092915050565b60008160001c9050919050565b600073ffffffffffffffffffffffffffffffffffffffff82169050919050565b60006115ec6115e7836115ac565b6115b9565b9050919050565b60006115ff82546115d9565b9050919050565b6000600182019050919050565b600061161e8261155a565b6116288185611565565b935061163383611570565b8060005b8381101561166b57611648826115f3565b6116528882611594565b975061165d83611606565b925050600181019050611637565b5085935050505092915050565b600061168482866114fb565b6020820191506116948285611543565b6014820191506116a48284611613565b915081905094935050505056fea2646970667358221220b00cf3b372991c732b600c4f2380a4b95520f25e5a59bd48e24f2b465f946c1964736f6c63430008130033",
  "immutableReferences": {},
  "source": "pragma solidity ^0.8.0;\n\nimport \"./MOKToken.sol\";\nimport \"@openzeppelin/contracts/access/Ownable.sol\";\nimport \"@openzeppelin/contracts/utils/math/SafeMath.sol\";\n\n\ncontract Lottery is Ownable {\n    using SafeMath for uint256;\n\n    MOKToken private mokToken;\n    address private feeAddress;\n    uint256 private ticketPrice;\n    uint256 private drawInterval;\n    uint256 private lastDrawTime;\n    uint256 private prizePool;\n    uint256 private usageFees;\n\n    mapping(address => uint256) private tickets;\n    address[] private players;\n\n    modifier onlyManager() {\n        require(msg.sender == owner() || msg.sender == manager1 || msg.sender == manager2, \"Not authorized\");\n        _;\n    }\n\n    constructor(\n        MOKToken _mokToken,\n        address _feeAddress,\n        uint256 _ticketPrice,\n        uint256 _drawInterval\n    ) {\n        mokToken = _mokToken;\n        feeAddress = _feeAddress;\n        ticketPrice = _ticketPrice;\n        drawInterval = _drawInterval;\n        lastDrawTime = block.timestamp;\n    }\n\n    // Variables for access control\n    address public manager1;\n    address public manager2;\n\n    function setManagers(address _manager1, address _manager2) external onlyOwner {\n        manager1 = _manager1;\n        manager2 = _manager2;\n\n        emit ManagersSet(_manager1, _manager2);\n    }\n\n    event ManagersSet(address indexed manager1, address indexed manager2);\n\n\n    function getTicketPrice() external view returns (uint256) {\n        return ticketPrice;\n    }\n\n    function getNumberOfTickets(address player) external view returns (uint256) {\n        return tickets[player];\n    }\n\n    function getPrizePool() external view returns (uint256) {\n        return prizePool;\n    }\n\n    function buyTickets(uint256 numTickets) external {\n        uint256 amount = ticketPrice.mul(numTickets);\n        mokToken.transferFrom(msg.sender, address(this), amount);\n        prizePool = prizePool.add(amount.mul(95).div(100));\n        usageFees = usageFees.add(amount.mul(5).div(100));\n        tickets[msg.sender] = tickets[msg.sender].add(numTickets);\n        players.push(msg.sender);\n\n        emit TicketsBought(msg.sender, numTickets);\n    }\n\n    event TicketsBought(address indexed player, uint256 numTickets);\n\n    function drawWinner() external onlyManager {\n        require(block.timestamp >= lastDrawTime + drawInterval, \"Cannot draw yet\");\n        require(players.length > 0, \"No players in the lottery\");\n\n        uint256 winnerIndex = _pseudoRandom() % players.length;\n        address winner = players[winnerIndex];\n\n        mokToken.transfer(winner, prizePool);\n        prizePool = 0;\n\n        lastDrawTime = block.timestamp;\n\n        delete players;\n\n        emit WinnerDrawn(winner);\n    }\n\n    event WinnerDrawn(address indexed winner);\n\n    function withdrawUsageFees() external onlyOwner {\n        mokToken.transfer(feeAddress, usageFees);\n        usageFees = 0;\n    }\n\n    function setTicketPrice(uint256 _ticketPrice) external onlyOwner {\n        ticketPrice = _ticketPrice;\n\n        emit TicketPriceSet(_ticketPrice);\n    }\n\n    event TicketPriceSet(uint256 ticketPrice);\n\n    function _pseudoRandom() private view returns (uint256) {\n        return uint256(keccak256(abi.encodePacked(block.timestamp, msg.sender, players)));\n    }\n\n    function getPlayers() external view returns (address[] memory) {\n        return players;\n\n    }\n\n}\n\n",
  "sourcePath": "/Users/suqingliu/Desktop/lottery_dapp/contracts/Lottery.sol",
  "compiler": {
    "name": "solc",
    "version": "0.8.19+commit.7dd6d404.Emscripten.clang"
  },
  "schemaVersion": "3.4.13",
  "updatedAt": "2023-05-03T19:08:07.781Z",
  "devdoc": {
    "kind": "dev",
    "methods": {
      "owner()": {
        "details": "Returns the address of the current owner."
      },
      "renounceOwnership()": {
        "details": "Leaves the contract without owner. It will not be possible to call `onlyOwner` functions anymore. Can only be called by the current owner. NOTE: Renouncing ownership will leave the contract without an owner, thereby removing any functionality that is only available to the owner."
      },
      "transferOwnership(address)": {
        "details": "Transfers ownership of the contract to a new account (`newOwner`). Can only be called by the current owner."
      }
    },
    "version": 1
  },
  "userdoc": {
    "kind": "user",
    "methods": {},
    "version": 1
  }
}